:1000000071C0000086C0000084C0000082C00000F3
:1000100080C000007EC000007CC000007AC00000EC
:1000200078C0000076C0000074C0000072C00000FC
:1000300070C000006EC000006CC000006AC000000C
:1000400068C0000066C0000064C0000062C000001C
:1000500060C000005EC000005CC000005AC000002C
:1000600058C0000056C0000054C0000052C000003C
:1000700050C000004EC000004CC000004AC000004C
:1000800048C0000046C0000044C0000042C000005C
:1000900040C000003EC000003CC000003AC000006C
:1000A00038C0000036C0000034C0000032C000007C
:1000B00030C000002EC000002CC000002AC000008C
:1000C00028C0000026C0000024C0000022C000009C
:1000D00020C000001EC000001CC000001AC00000AC
:1000E00018C0000011241FBECFEFD1E2DEBFCDBF8C
:1000F00000E00CBF12E0A0E0B2E0EAE3F6E000E0CE
:100100000BBF02C007900D92A235B107D9F722D1DB
:1001100092C276CFE2E0F1E08081806480830000CB
:1001200000000000000080818F7B80830895E2E062
:10013000F1E0208190E0AC01440F551F4871277E0B
:10014000242B20832EB1AC01440F551F440F551FA3
:100150004870277F242B2EB924B3880F991F8295CE
:100160009295907F9827807F98278072922F9F7D0D
:10017000892B84BB0895CF93C82F8FE39FE101970C
:10018000F1F700C00000E2E0F1E080818F7D808324
:1001900000008C2F82958F70CADFBCDF00008C2F8F
:1001A000C6DFB8DF0000CF910895CF93C82F8FE34B
:1001B0009FE10197F1F700C00000E2E0F1E08081EB
:1001C0008062808300008C2F82958F70B0DFA2DF69
:1001D00000008C2FACDF9EDF000087EC90E00197E1
:1001E000F1F700C00000CF910895E1E0F1E08081D7
:1001F000886780836B9A9D9A249A83E88093B000E5
:1002000081E08093B1002C982FEF80E792E021509D
:1002100080409040E1F700C00000A59A739A7ADF11
:100220008FE39CE90197F1F700C0000073DF8FE3D3
:100230009CE90197F1F700C000006CDF8FE39CE9B7
:100240000197F1F700C00000A59864DF88E293DF12
:1002500088E091DF81E08FDF86E08DDF8CE08BDF4F
:1002600088E98093B300089581E085CF0895982FA1
:10027000662321F0613021F480EC03C080E801C0E6
:1002800080E2903108F4890F76CF08958ECF0895DB
:10029000CF93DF93EC01892B41F08881882329F0EB
:1002A000219683DF89918111FCCFDF91CF91089551
:1002B000CF93DF93CDB7DEB727970FB6F894DEBFA5
:1002C0000FBECDBF4AE0BE016F5F7F4F81D1CE012F
:1002D0000196DEDF27960FB6F894DEBF0FBECDBFC6
:1002E000DF91CF9108950F931F93CF93DF9328E071
:1002F000829FC0011124D82FD064062F172FC0E091
:100300008C2F8D2B38DFF80181918F014EDFCF5F6D
:10031000C830B1F7DF91CF911F910F910895880FE9
:100320006C60862B28CF089580E125CF089584E165
:1003300022CF089588E11FCF08958CE11CCF089546
:10034000982F80E064E670E01CD161506093B300A8
:1003500008950895CF93DF93CDB7DEB72F970FB6EB
:10036000F894DEBF0FBECDBF8FE0E2E1F2E0DE0128
:10037000119601900D928A95E1F737DF69E472E0FA
:1003800080E0B1DF61E472E081E0ADDF69E372E05B
:1003900082E0A9DF61E372E083E0A5DF69E272E059
:1003A00084E0A1DF61E272E085E09DDF5DDF60E077
:1003B00082E05DDF80E092E06BDF2FEF87EA91E67D
:1003C000215080409040E1F700C000004DDF61E027
:1003D00083E04DDF89E092E05BDF2FEF87EA91E673
:1003E000215080409040E1F700C000003DDF81E4F3
:1003F0004DDF82E44BDF83E449DF80E247DF80E0CA
:1004000045DF81E043DF82E041DF83E03FDF84E0DE
:100410003DDF85E03BDF61E080E029DFCE01019632
:1004200037DF2FEF87EA91E6215080409040E1F7D7
:1004300000C0000060E081E072DF2FEF83ED90E309
:10044000215080409040E1F700C0000061E083E06F
:100450000EDF61E080E063DF2FEF87EA91E6215055
:1004600080409040E1F700C0000061E081E057DF8C
:100470002FEF87EA91E6215080409040E1F700C0DD
:10048000000052DF51DF2FEF83ED90E321508040D9
:100490009040E1F700C000004ADF49DF48DF47DF56
:1004A0002FEF83ED90E3215080409040E1F700C0B2
:1004B000000043DF42DF2FEF83ED90E321508040C7
:1004C0009040E1F700C0000035DF2FEF83ED90E3AF
:1004D000215080409040E1F700C0000060E080E0E3
:1004E0001EDFC2DE00ED1AE860E084E0C0DEC80175
:1004F000DFDE61E084E0BBDEC801805A9541D8DED2
:100500002FEF89E698E1215080409040E1F700C04C
:1005100000000F5F1F4F0A3D2AE8120729F710E07D
:10052000812F0EDF8FEF93EF21E08150904020402C
:10053000E1F700C000001F5F153691F714E6812F28
:10054000FFDE8FEF93EF21E0815090402040E1F7F4
:1005500000C00000115098F789E1F2DE85DE0DC081
:1005600083DEF7DE805D92DE8FEF91EE24E0815036
:1005700090402040E1F700C00000EBDE813081F7C1
:1005800015CF97FB072E16F4009406D077FD08D000
:100590000BD007FC05D03EF4909581959F4F0895B0
:1005A000709561957F4F0895AA1BBB1B51E107C051
:1005B000AA1FBB1FA617B70710F0A61BB70B881FF3
:1005C000991F5A95A9F780959095BC01CD01089582
:1005D000BB274A3031F4992322F4BDE290958195EE
:1005E0009F4F01C0BB27FB015527AA27880F991FE2
:1005F000AA1FA41710F0A41B83955051B9F7A05D52
:10060000AA3308F0A95DA193009779F7B111B193CE
:100610001192CB0100C0DC01FC01672F719177239F
:10062000E1F7329704C07C916D9370836291AE17AD
:0A063000BF07C8F30895F894FFCF48
:10063A00583D322C20593D3000583D332C20593D2D
:10064A003100537472696E6720696E205352414DAE
:10065A000004000E1212120D0000000E1315190EDE
:10066A000000000E1515150F00040E111F111111AF
:10067A00000E11131519110E000F14141F1414175C
:02068A0000006E
:00000001FF
